S01E0000534D54426F6172642D32303950726F6A6563742D56322E73726563D6
S11300000C9434000C9451000C9451000C94510045
S11300100C9451000C9451000C9451000C94DF0783
S11300200C9451000C9451000C9451000C94510008
S11300300C9451000C9451000C94D5070C9451006D
S11300400C9451000C9451000C9451000C945100E8
S11300500C9451000C9476000C9451000C940C01F7
S11300600C9451000C94510011241FBECFEFD8E022
S1130070DEBFCDBF11E0A0E0B1E0E6EAF6E102C0E8
S113008005900D92AC30B107D9F727E0ACE0B1E0B0
S113009001C01D92A537B207E1F70E948D040C94AC
S11300A0510B0C940000ACE7B0E080E48C93EAE7D9
S11300B0F0E08CEA808383E080937B0080937E0071
S11300C08C91807F81608C9380818064808388E0C0
S11300D080BF80B7826080BF80B78E7F80BF8AB1C7
S11300E08F738AB98BB18F738BB908951F920F9256
S11300F00FB60F9211248F939F93EF93FF938091E8
S11301001001882331F1E0910F01F0E08091780033
S113011090917900EE0FFF1FEF5DFE4F9183808376
S113012080910F018F5F80930F0180910F018233C3
S113013008F469C0EAE7F0E080818F7D8083109243
S11301400F0110921001ECE7F0E08081807F808342
S11301505AC080910E0181110FC0E0910C01F09101
S11301600D018091780090917900EE0FFF1FE75503
S1130170FE4F918380830EC0E0910C01F0910D013C
S11301808091780090917900EE0FFF1FEB5CFE4F99
S11301909183808380910C0190910D01019690933D
S11301A00D0180930C0180910C0190910D01C29777
S11301B050F110920D0110920C0180910E018111E9
S11301C018C080911301882351F082E080930E01BE
S11301D0ECE7F0E08081807F8260808314C081E05E
S11301E080930E01ECE7F0E08081807F8160808362
S11301F00AC010920E01ECE7F0E08081807F8083DA
S113020081E080931501FF91EF919F918F910F9061
S11302100FBE0F901F9018951F920F920FB60F925A
S113022011248F93EF93FF9316BC1092120181E077
S11302308093000110921501EAE7F0E0808180626A
S1130240808380B7877F80BFFF91EF918F910F905C
S11302500FBE0F901F901895BC0180E090E00E94A3
S1130260EC0920E030EC4FE754E40E94440920E01C
S113027030E040EA50E40E94A30A26E636E646E06F
S113028050E40E94D20820E030E048EA51E40E94A1
S1130290A30A20E030E04AE754E40E94A30A0E9443
S11302A0B609CB010895BC0180E090E00E94EC09FE
S11302B020E030E040EA50E40E94A30A20E030E06D
S11302C04AE754E40E94A30A20E030EC4FE754E4E8
S11302D00E94440920E030E443E055E40E94D2083F
S11302E026E636E646E950E40E94440920E030E080
S11302F040E850E40E94A30A0E94B609CB01089585
S1130300BC0180E090E00E94EC0920E030E040EA8B
S113031050E40E94A30A20E030E04AE754E40E943B
S1130320A30A20E030EC4FE754E40E94440920E0A3
S113033030E443E055E40E94D20820E030E040E29B
S113034051E40E94440920E030E040E850E40E9477
S1130350A30A0E94B609CB010895CF92DF92EF92CF
S1130360FF921F93CF93DF9381E080931001ECE71A
S1130370F0E08081807F81608083EAE7F0E0808123
S113038080628083809110018111FCCF10E00DC048
S1130390C12FD0E0CC0FDD1FCF5DDE4F8881998166
S11303A00E945301998388831F5F1A3088F3C0E049
S11303B0D0E0C12CD12C760120C0FE01EE0FFF1F2E
S11303C0EF5DFE4F60817181072E000C880B990B45
S11303D00E94EE0920E030E04AE754E40E94440918
S11303E09B01AC010E94A30A9B01AC01C701B601A9
S11303F00E94D3086B017C012196CA30D105ECF22E
S113040020E030E040E251E4C701B6010E94440913
S11304100E94200229E23BEC40E95EE30E949E0A2E
S113042018161CF41092130103C081E08093130189
S1130430DF91CF911F91FF90EF90DF90CF900895BF
S11304404F925F926F927F928F929F92AF92BF92E0
S1130450CF92DF92EF92FF920F931F93CF93DF938C
S1130460B62EA72E982E892E20E030E0A9010E94F6
S11304703F0988230CF46DC020E030E0A9016B2D06
S11304807A2D892D982D0E943F09882309F466C08E
S113049020E030E040E85FE36B2D7A2D892D982D24
S11304A00E943F09882309F45EC0DB2DCA2DD92C94
S11304B0C82C04C0D12FC02FDF2CCE2C2D2F3C2FC5
S11304C04D2D5C2D6B2D7A2D892D982D0E9444097C
S11304D09B01AC016D2F7C2F8D2D9C2D0E94D30888
S11304E020E030E040E05FE30E94A30A162F072FCC
S11304F0F82EE92E262F372F482F592F6D2F7C2FBA
S11305008D2D9C2D0E943F09882391F12D2F3C2F86
S11305104D2D5C2D612F702F8F2D9E2D0E94D208A2
S11305202B013C012DEB37E346E855E30E943F09DC
S113053088230CF0BFCF2DEB37E346E855EBC3011E
S1130540B2010E949E0A18160CF0B4CF3D2D2C2D3A
S113055011C0D0E0C0E030E82FEB0CC0DB2DCA2D79
S1130560392D282D07C0DB2DCA2D392D282D02C089
S11305703D2D2C2D6D2F7C2F832F922FDF91CF912A
S11305801F910F91FF90EF90DF90CF90BF90AF90AD
S11305909F908F907F906F905F904F9008958F926F
S11305A09F92AF92BF92CF92DF92EF92FF92CF933E
S11305B0DF934B015C01D42FC0E00F2EC12CD12C52
S11305C0F0E8EF2EFFE3FF2EF02D0BC020E030E02B
S11305D040E251E4C701B6010E94A30A6B017C0109
S11305E0CF5FCD1798F3A5019401C701B6010E940E
S11305F0A30A20E030E040E05FE30E94D3080E94B9
S1130600BD090E94EC09A70196010E944409DF91EB
S1130610CF91FF90EF90DF90CF90BF90AF909F90DD
S11306208F9008958AB18F628AB984B1876084B942
S113063008958F929F92AF92BF92CF92DF92EF92E2
S1130640FF92CF93DF936B017C0120E030E0A9019E
S11306500E943F0988231CF4C12CD12C760120E090
S11306603CE34CE156E4C701B6010E949E0A181609
S11306704CF40F2EC12CFCE3DF2EFCE1EF2EF6E44C
S1130680FF2EF02D20E030E040E251E4C701B60136
S11306900E943F098823ACF420E030E04AE754E4A8
S11306A0C701B6010E94A30A20E030E040E05FE306
S11306B00E94D3080E94BD094B015C011092010104
S11306C04FC020E030E048EC52E4C701B6010E947C
S11306D03F098823B4F420E030E048EC52E4C70139
S11306E0B6010E94A30A20E030E040E05FE30E94EC
S11306F0D3080E94BD094B015C0181E08093010194
S11307002FC020E030E04AE754E4C701B6010E945C
S11307103F098823B4F420E030E040E251E4C7010B
S1130720B6010E94A30A20E030E040E05FE30E94AB
S1130730D3080E94BD094B015C0182E08093010152
S11307400FC020E030E040E05FE3C701B6010E9443
S1130750D3080E94BD094B015C018FEF8093010116
S1130760C501B40128EE33E040E050E00E94100BD4
S11307700F2EFAE0CF2ED12CE12CF12CF02DCA0152
S1130780B901A70196010E94100BC7E1D1E068836B
S1130790C501B40124E630E040E050E00E94100BB3
S11307A0CA01B901A70196010E94100B6983C50112
S11307B0B401A70196010E94100BB62ECA01B9011B
S11307C0A70196010E94100B6A83BB8220E016C029
S11307D0822F90E040910101042E000C550B8417E8
S11307E0950774F4FC01E95EFE4F3081311108C0B5
S11307F0FC01E95EFE4F3FEF30832F5F233040F36F
S1130800DF91CF91FF90EF90DF90CF90BF90AF90AA
S11308109F908F9008958BB18F608BB9E0911601F2
S1130820F0E0E95EFE4FE081EF3F89F0F0E0EE5F3B
S1130830FE4F40812091160130E080910101082E85
S1130840000C990B2817390719F4406801C040E0DF
S113085087E018C0242F30E0082E02C03595279574
S11308600A94E2F720FF04C095B1946095B903C0DF
S113087095B19B7F95B99BB190629BB99BB19F7DCC
S11308809BB98150882334F785B1816085B985B1DE
S11308908E7F85B980911601813051F028F0823025
S11308A059F0833069F00FC08BB18E7F8BB90BC0C8
S11308B08BB18D7F8BB907C08BB18B7F8BB903C094
S11308C08BB1877F8BB9809116018F5F8370809382
S11308D01601089581E080931101E0E7F0E0808142
S11308E0826080831092B200809111018111FCCF4B
S11308F0089540E855E260E874E88EE190E00E94D3
S1130900B4080E9492080E949E080E94A8080E94AF
S113091053000E941203789408950E9479040E945F
S113092058060E946A04FBCF8F929F92AF92BF92A7
S1130930EF92FF920F931F93CF93DF937C018B0170
S1130940C0E0D0E0812C912C54011EC0FE01EE0FBA
S1130950FF1FEE0FFF1FEE0DFF1D6081718182816D
S1130960938120E030E04AE754E40E9444099B016B
S1130970AC010E94A30A9B01AC01C501B4010E9411
S1130980D3084B015C012196C017D107FCF2B801D2
S1130990110F880B990B0E94EE099B01AC01C50154
S11309A0B4010E9444090E942002DF91CF911F915B
S11309B00F91FF90EF90BF90AF909F908F9008950C
S11309C00F931F93CF93DF93EC0180E090E000E05E
S11309D010E0980110C0FC01EE0FFF1FEC0FFD1F8B
S11309E040815181052E000C660B770B040F151FF7
S11309F0261F371F0196823391056CF3C901B80194
S1130A0022E330E040E050E00E94320B80E090E0CE
S1130A100CC0FC01EE0FFF1FEC0FFD1F4081518144
S1130A20421B530B518340830196823391058CF30F
S1130A30DF91CF911F910F9108952F923F924F9282
S1130A405F926F927F928F929F92AF92BF92CF925A
S1130A50DF92EF92FF920F931F93CF93DF93CDB763
S1130A60DEB728970FB6F894DEBF0FBECDBF9E83C6
S1130A708D834B011A01A12CB12C00E010E07FC042
S1130A80F501EE0FFF1F2D813E81E20FF31F608100
S1130A907181072E000C880B990B0E94EE096B01E3
S1130AA07C01F5013196EE0FFF1F8D819E81E80FC9
S1130AB0F91F60817181072E000C880B990B0E942D
S1130AC0EE0969837A838B839C83F801EE0FFF1F01
S1130AD0EE0FFF1FE80DF91DC082D182E282F3827E
S1130AE00F5F1F4FE1E0F0E0F887EF833FC02F81F5
S1130AF03885B901330F880B990B0E94EE092B013D
S1130B003C01B101032C000C880B990B0E94EE09E7
S1130B109B01AC01C301B2010E9444092B013C01B9
S1130B20A701960169817A818B819C810E94D208F8
S1130B309B01AC01C301B2010E94A30A9B01AC0159
S1130B40C701B6010E94D308F801EE0FFF1FEE0F94
S1130B50FF1FE80DF91D60837183828393838F8166
S1130B609885019698878F830F5F1F4FEF81F885D3
S1130B70E215F3050CF4BBCFFFEFAF1ABF0A21E374
S1130B80A216B1040CF47CCFC801880F991F880FFA
S1130B90991F880D991D9A838983ED81FE81EE59F1
S1130BA0FF4F60817181072E000C880B990B0E9406
S1130BB0EE09E981FA8160837183828393832896A5
S1130BC00FB6F894DEBF0FBECDBFDF91CF911F915A
S1130BD00F91FF90EF90DF90CF90BF90AF909F90D8
S1130BE08F907F906F905F904F903F902F900895DB
S1130BF08F929F92AF92BF92CF92DF92EF92FF9229
S1130C000F931F93CF93DF936C017B01C0E0D0E07F
S1130C10812C912C540112C0FE01EE0FFF1FEE0F28
S1130C20FF1FEC0DFD1D2081318142815381C501DF
S1130C30B4010E94D3084B015C012196CE15DF0557
S1130C405CF3B7010F2C000C880B990B0E94EE0982
S1130C509B01AC01C501B4010E9444094B015C0134
S1130C6000E010E015C0E801CC0FDD1FCC0FDD1F44
S1130C70CC0DDD1DA5019401688179818A819B8158
S1130C800E94D208688379838A839B830F5F1F4FF6
S1130C900E151F0544F3DF91CF911F910F91FF9023
S1130CA0EF90DF90CF90BF90AF909F908F9008957A
S1130CB08F929F92AF92BF92CF92DF92EF92FF9268
S1130CC00F931F93CF93DF9380B7886080BFEEE6C6
S1130CD0F0E08081826080830E94AD0180911301E5
S1130CE0882339F0ECE7F0E08081807F82608083A4
S1130CF006C0ECE7F0E08081807F8160808388E03B
S1130D0080BF80B7826080BF80B78E7F80BF8091B4
S1130D1015018823E1F3C0E0D0E033C08E01000F59
S1130D20111FF801E755FE4F808191810E942C012B
S1130D30F801EF58FD4F918380838091130188233C
S1130D4081F08E01000F111FF801EB5CFE4F8081D2
S1130D5091810E948001F801E35FFD4F91838083BC
S1130D600FC08E01000F111FF801EB5CFE4F808154
S1130D7091810E945301F801E35FFD4F91838083C9
S1130D802196C233D10554F281E792E00E94E00437
S1130D908DE092E00E94E00443E050E065E275E0FB
S1130DA081E792E00E941D0543E050E065ED72E0AA
S1130DB08DE092E00E941D0564E970E085E295E013
S1130DC00E94F80564E970E085ED92E00E94F80560
S1130DD0C0E0D0E0C12CD12C760139C08E01015D78
S1130DE01F4F0439110590F5FE01EE0FFF1FEE0FA2
S1130DF0FF1FEB5DFA4F608171818281938120E056
S1130E0030E04AE754E40E9444094B015C01000FBE
S1130E10111F000F111FF801EB52FD4F608171810A
S1130E208281938120E030E04AE754E40E9444093F
S1130E309B01AC01C501B4010E94A30A9B01AC0152
S1130E40C701B6010E94D3086B017C012196C43608
S1130E50D10524F220E030E048EC52E4C701B601A9
S1130E600E94440960939D0170939E0180939F01A9
S1130E709093A00164E970E085E295E00E949404F7
S1130E806093990170939A0180939B0190939C01C4
S1130E9064E970E085ED92E00E9494046B017C01AA
S1130EA060E070E080E090E40E9420029B01AC01CD
S1130EB0C701B6010E94A30A20E030E04AE754E4E7
S1130EC00E94A30A6093A5017093A6018093A701D1
S1130ED09093A801E4E8F0E06081718111821082AE
S1130EE080E090E00E94EC0920E030E040E853E428
S1130EF00E94A30A20E034E244EF59E40E9444092A
S1130F0020919D0130919E0140919F015091A0013B
S1130F100E94A30A9B01AC016091A1017091A201FE
S1130F208091A3019091A4010E94D3086093A10130
S1130F307093A2018093A3019093A40120E030E078
S1130F4015C0C901880F991F880F991FFC01EB5D1B
S1130F50FA4F1082118212821382FC01EB52FD4F70
S1130F6010821182128213822F5F3F4F2439310580
S1130F7044F31092150181E080931401EAE7F0E054
S1130F8080818F7D8083EEE6F0E080818D7F808399
S1130F90DF91CF911F910F91FF90EF90DF90CF9051
S1130FA0BF90AF909F908F9008951F920F920FB6AD
S1130FB00F9211240F900FBE0F901F9018951F923F
S1130FC00F920FB60F9211242F933F934F935F9379
S1130FD06F937F938F939F93AF93BF93EF93FF93FD
S1130FE0809120018F5F80932001809111018823DB
S1130FF009F46CC080911F018130B9F028F082306F
S113100029F18330A1F143C08091990190919A0113
S1131010A0919B01B0919C0180931B0190931C01B2
S1131020A0931D01B0931E0132C08091A50190913F
S1131030A601A091A701B091A80180931B019093F0
S11310401C01A0931D01B0931E0121C080919D013C
S113105090919E01A0919F01B091A00180931B01EA
S113106090931C01A0931D01B0931E0110C08091A8
S1131070A1019091A201A091A301B091A401809338
S11310801B0190931C01A0931D01B0931E0160915C
S11310901B0170911C0180911D0190911E0143E080
S11310A00E94CF0260931B0170931C0180931D0169
S11310B090931E0160911B0170911C0180911D0190
S11310C090911E010E9419030E940B04809120013B
S11310D08436B8F01092200180911F018F5F8093B5
S11310E01F0180911F01843060F010921F01E0E71E
S11310F0F0E080818D7F8083109211018BB18F602D
S11311008BB9FF91EF91BF91AF919F918F917F9197
S11311106F915F914F913F912F910F900FBE0F9060
S11311201F90189584B58E7F84BD84B5826084BD7C
S113113081E085BD80EF87BD16BC089510928000C4
S113114084E08093810010928500109284000895B9
S113115082E08093B00085E08093B1008BE98093B6
S1131160B3001092B20008959A01550F440B550B29
S11311700E94100BDA01C901689413F8B695A7957B
S1131180979587951694D1F79C0121503109309396
S1131190C5002093C40088E18093C10086E0809359
S11311A0C20008955058BB27AA270E94EA080C944D
S11311B0640A0E94560A38F00E945D0A20F039F44D
S11311C09F3F19F426F40C94530A0EF4E095E7FBC0
S11311D00C944D0AE92F0E94750A58F3BA17620756
S11311E073078407950720F079F4A6F50C94970A01
S11311F00EF4E0950B2EBA2FA02D0B01B90190012E
S11312000C01CA01A0011124FF27591B99F0593F71
S113121050F4503E68F11A16F040A22F232F342FB9
S11312204427585FF3CF469537952795A795F04007
S11312305395C9F77EF41F16BA0B620B730B840B1C
S1131240BAF09150A1F0FF0FBB1F661F771F881FD4
S1131250C2F70EC0BA0F621F731F841F48F487952C
S113126077956795B795F7959E3F08F0B0CF93951E
S1131270880F08F09927EE0F9795879508950E9497
S1131280290A08F481E008950E9458090C94640A1C
S11312900E945D0A58F00E94560A40F029F45F3F0C
S11312A029F00C944D0A51110C94980A0C94530A89
S11312B00E94750A68F39923B1F3552391F3951BA2
S11312C0550BBB27AA2762177307840738F09F5F63
S11312D05F4F220F331F441FAA1FA9F335D00E2ED0
S11312E03AF0E0E832D091505040E695001CCAF73D
S11312F02BD0FE2F29D0660F771F881FBB1F261700
S113130037074807AB07B0E809F0BB0B802DBF01D6
S1131310FF2793585F4F3AF09E3F510578F00C94A5
S11313204D0A0C94980A5F3FE4F3983ED4F38695F3
S113133077956795B795F7959F5FC9F7880F911DC6
S11313409695879597F90895E1E0660F771F881FB2
S1131350BB1F621773078407BA0720F0621B730B65
S1131360840BBA0BEE1F88F7E09508950E94BD091F
S11313706894B1110C94980A08950E947D0A88F02B
S11313809F5798F0B92F9927B751B0F0E1F0660F45
S1131390771F881F991F1AF0BA95C9F714C0B13086
S11313A091F00E94970AB1E008950C94970A672F70
S11313B0782F8827B85F39F0B93FCCF386957795B5
S11313C06795B395D9F73EF490958095709561959E
S11313D07F4F8F4F9F4F0895E89409C097FB3EF4C9
S11313E090958095709561957F4F8F4F9F4F99236E
S11313F0A9F0F92F96E9BB279395F69587957795EC
S11314006795B795F111F8CFFAF4BB0F11F460FFAB
S11314101BC06F5F7F4F8F4F9F4F16C0882311F003
S113142096E911C0772321F09EE8872F762F05C017
S1131430662371F096E8862F70E060E02AF09A95B2
S1131440660F771F881FDAF7880F9695879597F9A7
S11314500895990F0008550FAA0BE0E8FEEF161641
S11314601706E807F907C0F012161306E407F50794
S113147098F0621B730B840B950B39F40A2661F008
S1131480232B242B252B21F408950A2609F4A140AB
S1131490A6958FEF811D811D089597F99F6780E8B8
S11314A070E060E008959FEF80EC089500240A94B2
S11314B01616170618060906089500240A9412162B
S11314C01306140605060895092E0394000C11F45E
S11314D0882352F0BB0F40F4BF2B11F460FF04C00B
S11314E06F5F7F4F8F4F9F4F089557FD9058440F64
S11314F0551F59F05F3F71F04795880F97FB991F6F
S113150061F09F3F79F0879508951216130614062B
S1131510551FF2CF4695F1DF08C0161617061806B8
S1131520991FF1CF86957105610508940895E89493
S1131530BB2766277727CB0197F908950E94290ACC
S113154008F48FEF08950E94B60A0C94640A0E946E
S1131550560A38F00E945D0A20F0952311F00C948D
S11315604D0A0C94530A11240C94980A0E94750A8B
S113157070F3959FC1F3950F50E0551F629FF001E2
S1131580729FBB27F00DB11D639FAA27F00DB11DFB
S1131590AA1F649F6627B00DA11D661F829F222784
S11315A0B00DA11D621F739FB00DA11D621F839F0B
S11315B0A00D611D221F749F3327A00D611D231FE1
S11315C0849F600D211D822F762F6A2F11249F572F
S11315D050409AF0F1F088234AF0EE0FFF1FBB1F32
S11315E0661F771F881F91505040A9F79E3F5105F1
S11315F080F00C944D0A0C94980A5F3FE4F3983EF3
S1131600D4F3869577956795B795F795E7959F5F9A
S1131610C1F7FE2B880F911D9695879597F908952C
S1131620A1E21A2EAA1BBB1BFD010DC0AA1FBB1FE2
S1131630EE1FFF1FA217B307E407F50720F0A21B54
S1131640B30BE40BF50B661F771F881F991F1A94C1
S113165069F760957095809590959B01AC01BD01EB
S1131660CF010895052E97FB1EF400940E94490BA8
S113167057FD07D00E94100B07FC03D04EF40C94C6
S1131680490B50954095309521953F4F4F4F5F4FF3
S1131690089590958095709561957F4F8F4F9F4FDA
S10916A00895F894FFCF49
S10F16A601FF3F065B4F666D7D077F6708
S9030000FC
